:100003001010D0FF901000FE2222222222FF0200B5
:10001300040300FF000100FF4242424242FF00008E
:10002300804020F80724242425262424B426040011
:10003300000000FF0001FD4545454545FD01000069
:10004300000000F8484C4A49484848FC08000000B2
:10005300000000FF44444444444444FF00000000C3
:100063000004848484848484848484FE04000000E3
:1000730000003F404040404040404041407000004D
:1000830040484848FF4868400C30C0300E0000002C
:1000930040300F081F22424844434041466C200031
:1000A3004042CC0004FF0404FC00FC0404FE0400F2
:1000B30040201F28444348504F405F48486F20006A
:1000C30004E4242464A4243F24A4642424F6240004
:1000D30000FF00090909097F09090949807F000018
:1000E3000000000000001CFEFE1C000000000000D9
:1000F3000000000000000033330000000000000097
:10028100C2A2D2A1E4F580D2A000AF80C2A05307E0
:0A02910080EF7003D38001C350EA30
:01029B002240
:10029C00AE07120281C2A2C2A18E80D2A00000C2FF
:0502AC00A0E4FEFF22AA
:0602D8004307B802029C7E
:0602DE004307C002029C70
:0902CF0053073F43074002029C63
:0602E40043073E02029CEC
:1002B100AE07120281D2A2C2A18E80D2A00000C2DA
:0202C100A02279
:1001FE00EF14600B14601124027017C2A4800BC29E
:10020E00A4000000D2A38007D2A4000000C2A30065
:03021E00000022BB
:100262001201FEE4FDAF051202D8E4FF1202CFE450
:0E027200FCE4FF1202B10CBC40F70DBD10E71A
:01028000225B
:10024200E4FDFCC3ED9FEC9E5015E4FBFA0BBB00F2
:0F025200010AEB646E4A70F50DBD00010C80E4EB
:01026100227A
:10022100120281E4FF1201FE1202E4E4FF1201FE58
:100231000F1202E4E4FF1201FE120262E4FF020265
:01024100DEDE
:02018400AC03CA
:100186001201FE53043FAF051202D8AF041202CF8C
:10019600E4FBFA75F020E50DA42BF582E5F03AF5BF
:1001A60083E5822403F582E5833400F583E493FF37
:1001B6001202B10BBB00010AEB64104A70D5ED04C4
:1001C600FF1202D8AF041202CFE4FAFB75F020E565
:1001D6000DA42BF582E5F03AF583E5822413F5822A
:1001E600E5833400F583E493FF1202B10BBB0001F3
:0701F6000AEB64104A70D50A
:0101FD0022DF
:10010300120221E4FF120262E4F508F509AF0912B5
:1001130002DEE4F50DFBFD7F02120184750D017B08
:10012300107F02120184750D027B207F021201846D
:10013300750D037B307F02120184750D047B407FB4
:1001430001120184750D057B507F01120184750D29
:10015300067B607F01120184750D077B707F01129E
:100163000184E4FF1201FE7F327E00120242050980
:10017300E50970020508C39480E5089400408E8069
:0101830087F4
:030000000202C336
:0C02C300787FE4F6D8FD75810D02010380
:00000001FF
